{
  "contractName": "MyToken",
  "abi": [
    {
      "inputs": [],
      "stateMutability": "nonpayable",
      "type": "constructor"
    },
    {
      "inputs": [
        {
          "internalType": "address",
          "name": "_owner",
          "type": "address"
        }
      ],
      "name": "balanceOf",
      "outputs": [
        {
          "internalType": "uint256",
          "name": "",
          "type": "uint256"
        }
      ],
      "stateMutability": "view",
      "type": "function",
      "constant": true
    },
    {
      "inputs": [
        {
          "internalType": "address",
          "name": "_owner",
          "type": "address"
        }
      ],
      "name": "ethBalanceOf",
      "outputs": [
        {
          "internalType": "uint256",
          "name": "",
          "type": "uint256"
        }
      ],
      "stateMutability": "view",
      "type": "function",
      "constant": true
    },
    {
      "inputs": [
        {
          "internalType": "address",
          "name": "from",
          "type": "address"
        },
        {
          "internalType": "address",
          "name": "to",
          "type": "address"
        },
        {
          "internalType": "uint256",
          "name": "value",
          "type": "uint256"
        }
      ],
      "name": "transfer",
      "outputs": [
        {
          "internalType": "bool",
          "name": "",
          "type": "bool"
        }
      ],
      "stateMutability": "nonpayable",
      "type": "function"
    },
    {
      "inputs": [],
      "name": "buyToken",
      "outputs": [
        {
          "internalType": "bool",
          "name": "",
          "type": "bool"
        }
      ],
      "stateMutability": "payable",
      "type": "function",
      "payable": true
    },
    {
      "inputs": [],
      "name": "getTotalSupply",
      "outputs": [
        {
          "internalType": "uint256",
          "name": "",
          "type": "uint256"
        }
      ],
      "stateMutability": "view",
      "type": "function",
      "constant": true
    }
  ],
  "bytecode": "0x60806040526040518060400160405280600b81526020017f4d6568646920546f6b656e0000000000000000000000000000000000000000008152506000908051906020019061004f9291906100cb565b50620186a0600155600a600260006101000a81548160ff021916908360ff16021790555034801561007f57600080fd5b50600154600360003373ffffffffffffffffffffffffffffffffffffffff1673ffffffffffffffffffffffffffffffffffffffff168152602001908152602001600020819055506101cf565b8280546100d79061019d565b90600052602060002090601f0160209004810192826100f95760008555610140565b82601f1061011257805160ff1916838001178555610140565b82800160010185558215610140579182015b8281111561013f578251825591602001919060010190610124565b5b50905061014d9190610151565b5090565b5b8082111561016a576000816000905550600101610152565b5090565b7f4e487b7100000000000000000000000000000000000000000000000000000000600052602260045260246000fd5b600060028204905060018216806101b557607f821691505b602082108114156101c9576101c861016e565b5b50919050565b610745806101de6000396000f3fe60806040526004361061004a5760003560e01c806370a082311461004f5780637252bbf21461008c578063a4821719146100c9578063beabacc8146100e7578063c4e41b2214610124575b600080fd5b34801561005b57600080fd5b5061007660048036038101906100719190610486565b61014f565b60405161008391906104cc565b60405180910390f35b34801561009857600080fd5b506100b360048036038101906100ae9190610486565b610198565b6040516100c091906104cc565b60405180910390f35b6100d16101b9565b6040516100de9190610502565b60405180910390f35b3480156100f357600080fd5b5061010e60048036038101906101099190610549565b6102da565b60405161011b9190610502565b60405180910390f35b34801561013057600080fd5b50610139610419565b60405161014691906104cc565b60405180910390f35b6000600360008373ffffffffffffffffffffffffffffffffffffffff1673ffffffffffffffffffffffffffffffffffffffff168152602001908152602001600020549050919050565b60008173ffffffffffffffffffffffffffffffffffffffff16319050919050565b6000806064346101c991906105cb565b90506064816101d89190610654565b6101e133610198565b11156101ec57600080fd5b600073ffffffffffffffffffffffffffffffffffffffff163373ffffffffffffffffffffffffffffffffffffffff16141561022657600080fd5b80600360003073ffffffffffffffffffffffffffffffffffffffff1673ffffffffffffffffffffffffffffffffffffffff16815260200190815260200160002060008282546102759190610685565b9250508190555080600360003373ffffffffffffffffffffffffffffffffffffffff1673ffffffffffffffffffffffffffffffffffffffff16815260200190815260200160002060008282546102cb91906106b9565b92505081905550600191505090565b6000600360008573ffffffffffffffffffffffffffffffffffffffff1673ffffffffffffffffffffffffffffffffffffffff1681526020019081526020016000205482111561032857600080fd5b600073ffffffffffffffffffffffffffffffffffffffff168373ffffffffffffffffffffffffffffffffffffffff16141561036257600080fd5b81600360008673ffffffffffffffffffffffffffffffffffffffff1673ffffffffffffffffffffffffffffffffffffffff16815260200190815260200160002060008282546103b19190610685565b9250508190555081600360008573ffffffffffffffffffffffffffffffffffffffff1673ffffffffffffffffffffffffffffffffffffffff168152602001908152602001600020600082825461040791906106b9565b92505081905550600190509392505050565b6000600154905090565b600080fd5b600073ffffffffffffffffffffffffffffffffffffffff82169050919050565b600061045382610428565b9050919050565b61046381610448565b811461046e57600080fd5b50565b6000813590506104808161045a565b92915050565b60006020828403121561049c5761049b610423565b5b60006104aa84828501610471565b91505092915050565b6000819050919050565b6104c6816104b3565b82525050565b60006020820190506104e160008301846104bd565b92915050565b60008115159050919050565b6104fc816104e7565b82525050565b600060208201905061051760008301846104f3565b92915050565b610526816104b3565b811461053157600080fd5b50565b6000813590506105438161051d565b92915050565b60008060006060848603121561056257610561610423565b5b600061057086828701610471565b935050602061058186828701610471565b925050604061059286828701610534565b9150509250925092565b7f4e487b7100000000000000000000000000000000000000000000000000000000600052601160045260246000fd5b60006105d6826104b3565b91506105e1836104b3565b9250817fffffffffffffffffffffffffffffffffffffffffffffffffffffffffffffffff048311821515161561061a5761061961059c565b5b828202905092915050565b7f4e487b7100000000000000000000000000000000000000000000000000000000600052601260045260246000fd5b600061065f826104b3565b915061066a836104b3565b92508261067a57610679610625565b5b828204905092915050565b6000610690826104b3565b915061069b836104b3565b9250828210156106ae576106ad61059c565b5b828203905092915050565b60006106c4826104b3565b91506106cf836104b3565b9250827fffffffffffffffffffffffffffffffffffffffffffffffffffffffffffffffff038211156107045761070361059c565b5b82820190509291505056fea26469706673582212201ad7ea2d711ce17122094010f679f0ffb16955d7db8bb7348165e74065779df564736f6c63430008090033",
  "immutableReferences": {},
  "source": "// SPDX-License-Identifier: MIT\npragma solidity >=0.4.22 <0.9.0;\n\n\ncontract MyToken {\n    string name = \"Mehdi Token\";\n    uint256 totalSupply = 100000;\n    uint8 decimals = 10;\n    mapping (address => uint256) private _balances;\n    \n    constructor() {\n        _balances[msg.sender] = totalSupply;\n    }\n    function balanceOf(address _owner) public view returns (uint256){\n        return _balances[_owner];\n    }\n     function ethBalanceOf(address _owner) public view returns (uint256){\n        return _owner.balance;\n    }\n    \n    function transfer(address from, address to, uint256 value) public returns (bool) {\n    require(value <= _balances[from]);\n    require(to != address(0));\n\n    _balances[from] -= value;\n    _balances[to] += value;\n    return true;\n  }\n  function buyToken() public payable returns (bool) {\n\n    uint amount = msg.value * 100;\n    require(ethBalanceOf(msg.sender) <= amount/100);\n    require(msg.sender != address(0));\n    \n    _balances[address(this)] -= amount;\n    _balances[msg.sender] += amount;\n    return true;\n  }\n  function getTotalSupply() public view returns (uint256) {\n      return totalSupply;\n  }\n    \n    \n    \n    \n}",
  "sourcePath": "/Users/mac/Documents/Projects/MyToken Exchange/contracts/MyToken.sol",
  "compiler": {
    "name": "solc",
    "version": "0.8.9+commit.e5eed63a.Emscripten.clang"
  },
  "schemaVersion": "3.4.3",
  "updatedAt": "2021-10-27T12:53:31.284Z",
  "networkType": "ethereum",
  "devdoc": {
    "kind": "dev",
    "methods": {},
    "version": 1
  },
  "userdoc": {
    "kind": "user",
    "methods": {},
    "version": 1
  }
}