{
  "contractName": "MyToken",
  "abi": [
    {
      "inputs": [],
      "stateMutability": "nonpayable",
      "type": "constructor"
    },
    {
      "inputs": [
        {
          "internalType": "address",
          "name": "_owner",
          "type": "address"
        }
      ],
      "name": "balanceOf",
      "outputs": [
        {
          "internalType": "uint256",
          "name": "",
          "type": "uint256"
        }
      ],
      "stateMutability": "view",
      "type": "function",
      "constant": true
    },
    {
      "inputs": [
        {
          "internalType": "address",
          "name": "_owner",
          "type": "address"
        }
      ],
      "name": "ethBalanceOf",
      "outputs": [
        {
          "internalType": "uint256",
          "name": "",
          "type": "uint256"
        }
      ],
      "stateMutability": "view",
      "type": "function",
      "constant": true
    },
    {
      "inputs": [
        {
          "internalType": "address",
          "name": "from",
          "type": "address"
        },
        {
          "internalType": "address",
          "name": "to",
          "type": "address"
        },
        {
          "internalType": "uint256",
          "name": "value",
          "type": "uint256"
        }
      ],
      "name": "transfer",
      "outputs": [
        {
          "internalType": "bool",
          "name": "",
          "type": "bool"
        }
      ],
      "stateMutability": "nonpayable",
      "type": "function"
    },
    {
      "inputs": [],
      "name": "buyToken",
      "outputs": [],
      "stateMutability": "payable",
      "type": "function",
      "payable": true
    },
    {
      "inputs": [
        {
          "internalType": "uint256",
          "name": "amount",
          "type": "uint256"
        }
      ],
      "name": "sellToken",
      "outputs": [],
      "stateMutability": "payable",
      "type": "function",
      "payable": true
    },
    {
      "inputs": [],
      "name": "getTotalSupply",
      "outputs": [
        {
          "internalType": "uint256",
          "name": "",
          "type": "uint256"
        }
      ],
      "stateMutability": "view",
      "type": "function",
      "constant": true
    }
  ],
  "bytecode": "0x60806040526040518060400160405280600b81526020017f4d6568646920546f6b656e0000000000000000000000000000000000000000008152506000908051906020019061004f9291906100cb565b50620186a0600155600a600260006101000a81548160ff021916908360ff16021790555034801561007f57600080fd5b50600154600360003373ffffffffffffffffffffffffffffffffffffffff1673ffffffffffffffffffffffffffffffffffffffff168152602001908152602001600020819055506101cf565b8280546100d79061019d565b90600052602060002090601f0160209004810192826100f95760008555610140565b82601f1061011257805160ff1916838001178555610140565b82800160010185558215610140579182015b8281111561013f578251825591602001919060010190610124565b5b50905061014d9190610151565b5090565b5b8082111561016a576000816000905550600101610152565b5090565b7f4e487b7100000000000000000000000000000000000000000000000000000000600052602260045260246000fd5b600060028204905060018216806101b557607f821691505b602082108114156101c9576101c861016e565b5b50919050565b610864806101de6000396000f3fe6080604052600436106100555760003560e01c80632397e4d71461005a57806370a08231146100765780637252bbf2146100b3578063a4821719146100f0578063beabacc8146100fa578063c4e41b2214610137575b600080fd5b610074600480360381019061006f91906104d3565b610162565b005b34801561008257600080fd5b5061009d6004803603810190610098919061055e565b6101d7565b6040516100aa919061059a565b60405180910390f35b3480156100bf57600080fd5b506100da60048036038101906100d5919061055e565b610220565b6040516100e7919061059a565b60405180910390f35b6100f8610241565b005b34801561010657600080fd5b50610121600480360381019061011c91906105b5565b61034f565b60405161012e9190610623565b60405180910390f35b34801561014357600080fd5b5061014c61048e565b604051610159919061059a565b60405180910390f35b61016d33308361034f565b503373ffffffffffffffffffffffffffffffffffffffff166108fc670de0b6b3a764000060648461019e919061069c565b6101a891906106cd565b9081150290604051600060405180830381858888f193505050501580156101d3573d6000803e3d6000fd5b5050565b6000600360008373ffffffffffffffffffffffffffffffffffffffff1673ffffffffffffffffffffffffffffffffffffffff168152602001908152602001600020549050919050565b60008173ffffffffffffffffffffffffffffffffffffffff16319050919050565b6000670de0b6b3a764000060643461025991906106cd565b610263919061069c565b9050606481610272919061069c565b61027b33610220565b10156102bc576040517f08c379a00000000000000000000000000000000000000000000000000000000081526004016102b390610784565b60405180910390fd5b600073ffffffffffffffffffffffffffffffffffffffff163373ffffffffffffffffffffffffffffffffffffffff1614156102f657600080fd5b80600360003373ffffffffffffffffffffffffffffffffffffffff1673ffffffffffffffffffffffffffffffffffffffff168152602001908152602001600020600082825461034591906107a4565b9250508190555050565b6000600360008573ffffffffffffffffffffffffffffffffffffffff1673ffffffffffffffffffffffffffffffffffffffff1681526020019081526020016000205482111561039d57600080fd5b600073ffffffffffffffffffffffffffffffffffffffff168373ffffffffffffffffffffffffffffffffffffffff1614156103d757600080fd5b81600360008673ffffffffffffffffffffffffffffffffffffffff1673ffffffffffffffffffffffffffffffffffffffff168152602001908152602001600020600082825461042691906107fa565b9250508190555081600360008573ffffffffffffffffffffffffffffffffffffffff1673ffffffffffffffffffffffffffffffffffffffff168152602001908152602001600020600082825461047c91906107a4565b92505081905550600190509392505050565b6000600154905090565b600080fd5b6000819050919050565b6104b08161049d565b81146104bb57600080fd5b50565b6000813590506104cd816104a7565b92915050565b6000602082840312156104e9576104e8610498565b5b60006104f7848285016104be565b91505092915050565b600073ffffffffffffffffffffffffffffffffffffffff82169050919050565b600061052b82610500565b9050919050565b61053b81610520565b811461054657600080fd5b50565b60008135905061055881610532565b92915050565b60006020828403121561057457610573610498565b5b600061058284828501610549565b91505092915050565b6105948161049d565b82525050565b60006020820190506105af600083018461058b565b92915050565b6000806000606084860312156105ce576105cd610498565b5b60006105dc86828701610549565b93505060206105ed86828701610549565b92505060406105fe868287016104be565b9150509250925092565b60008115159050919050565b61061d81610608565b82525050565b60006020820190506106386000830184610614565b92915050565b7f4e487b7100000000000000000000000000000000000000000000000000000000600052601260045260246000fd5b7f4e487b7100000000000000000000000000000000000000000000000000000000600052601160045260246000fd5b60006106a78261049d565b91506106b28361049d565b9250826106c2576106c161063e565b5b828204905092915050565b60006106d88261049d565b91506106e38361049d565b9250817fffffffffffffffffffffffffffffffffffffffffffffffffffffffffffffffff048311821515161561071c5761071b61066d565b5b828202905092915050565b600082825260208201905092915050565b7f6e6f7420656e6f75676820657468657200000000000000000000000000000000600082015250565b600061076e601083610727565b915061077982610738565b602082019050919050565b6000602082019050818103600083015261079d81610761565b9050919050565b60006107af8261049d565b91506107ba8361049d565b9250827fffffffffffffffffffffffffffffffffffffffffffffffffffffffffffffffff038211156107ef576107ee61066d565b5b828201905092915050565b60006108058261049d565b91506108108361049d565b9250828210156108235761082261066d565b5b82820390509291505056fea26469706673582212207003bd017a00872db04d16980f5fdc4a8c2ee2e3dc284ae6b1b0d79746db7aba64736f6c63430008090033",
  "immutableReferences": {},
  "source": "// SPDX-License-Identifier: MIT\npragma solidity >=0.4.22 <0.9.0;\n\n\ncontract MyToken {\n    string name = \"Mehdi Token\";\n    uint256 totalSupply = 100000;\n    uint8 decimals = 10;\n    mapping (address => uint256) private _balances;\n    \n    constructor() {\n        _balances[msg.sender] = totalSupply;\n    }\n    function balanceOf(address _owner) public view returns (uint256){\n        return _balances[_owner];\n    }\n     function ethBalanceOf(address _owner) public view returns (uint256){\n        return _owner.balance;\n    }\n    \n    function transfer(address from, address to, uint256 value) public returns (bool) {\n    require(value <= _balances[from]);\n    require(to != address(0));\n\n    _balances[from] -= value;\n    _balances[to] += value;\n    return true;\n  }\n  function buyToken() public payable {\n\n    uint amount = msg.value * 100 / 1000000000000000000;\n    require(ethBalanceOf(msg.sender) >= amount/100, \"not enough ether\");\n    require(msg.sender != address(0));\n    \n    _balances[msg.sender] += amount;\n  }\n  function sellToken(uint amount) public payable {\n    transfer(msg.sender, address(this), amount);\n     payable(msg.sender).transfer(amount / 100 * 1000000000000000000);\n     \n  }\n  function getTotalSupply() public view returns (uint256) {\n      return totalSupply;\n  }\n    \n    \n    \n    \n}",
  "sourcePath": "/Users/mac/Documents/Projects/MyToken Exchange/contracts/MyToken.sol",
  "compiler": {
    "name": "solc",
    "version": "0.8.9+commit.e5eed63a.Emscripten.clang"
  },
  "schemaVersion": "3.4.3",
  "updatedAt": "2021-11-03T09:24:55.079Z",
  "networkType": "ethereum",
  "devdoc": {
    "kind": "dev",
    "methods": {},
    "version": 1
  },
  "userdoc": {
    "kind": "user",
    "methods": {},
    "version": 1
  }
}